{
  "contractName": "CryptoLancerContract",
  "abi": [
    {
      "inputs": [
        {
          "internalType": "uint256[]",
          "name": "_milestones",
          "type": "uint256[]"
        }
      ],
      "stateMutability": "nonpayable",
      "type": "constructor"
    },
    {
      "inputs": [],
      "name": "curAssignee",
      "outputs": [
        {
          "internalType": "address",
          "name": "",
          "type": "address"
        }
      ],
      "stateMutability": "view",
      "type": "function"
    },
    {
      "inputs": [],
      "name": "curMilestone",
      "outputs": [
        {
          "internalType": "uint256",
          "name": "",
          "type": "uint256"
        }
      ],
      "stateMutability": "view",
      "type": "function"
    },
    {
      "inputs": [
        {
          "internalType": "uint256",
          "name": "",
          "type": "uint256"
        }
      ],
      "name": "milestones",
      "outputs": [
        {
          "internalType": "uint256",
          "name": "",
          "type": "uint256"
        }
      ],
      "stateMutability": "view",
      "type": "function"
    },
    {
      "inputs": [],
      "name": "owner",
      "outputs": [
        {
          "internalType": "address",
          "name": "",
          "type": "address"
        }
      ],
      "stateMutability": "view",
      "type": "function"
    },
    {
      "inputs": [],
      "name": "projectActive",
      "outputs": [
        {
          "internalType": "bool",
          "name": "",
          "type": "bool"
        }
      ],
      "stateMutability": "view",
      "type": "function"
    },
    {
      "inputs": [],
      "name": "addBudgetToContract",
      "outputs": [],
      "stateMutability": "payable",
      "type": "function"
    },
    {
      "inputs": [
        {
          "internalType": "address",
          "name": "_assignee",
          "type": "address"
        }
      ],
      "name": "add_first_assignee",
      "outputs": [],
      "stateMutability": "nonpayable",
      "type": "function"
    },
    {
      "inputs": [],
      "name": "mark_milestone_as_complete",
      "outputs": [],
      "stateMutability": "nonpayable",
      "type": "function"
    },
    {
      "inputs": [
        {
          "internalType": "address",
          "name": "_newAssignee",
          "type": "address"
        }
      ],
      "name": "change_assignee",
      "outputs": [],
      "stateMutability": "payable",
      "type": "function"
    },
    {
      "inputs": [],
      "name": "remove_project_with_no_assignee",
      "outputs": [],
      "stateMutability": "nonpayable",
      "type": "function"
    },
    {
      "inputs": [],
      "name": "remove_project_with_assignee",
      "outputs": [],
      "stateMutability": "nonpayable",
      "type": "function"
    },
    {
      "inputs": [],
      "name": "getCurAssignee",
      "outputs": [
        {
          "internalType": "address",
          "name": "",
          "type": "address"
        }
      ],
      "stateMutability": "view",
      "type": "function"
    },
    {
      "inputs": [],
      "name": "getNoOfMilestonesCompleted",
      "outputs": [
        {
          "internalType": "uint256",
          "name": "",
          "type": "uint256"
        }
      ],
      "stateMutability": "view",
      "type": "function"
    },
    {
      "inputs": [],
      "name": "getLeftFunds",
      "outputs": [
        {
          "internalType": "uint256",
          "name": "",
          "type": "uint256"
        }
      ],
      "stateMutability": "view",
      "type": "function"
    }
  ],
  "bytecode": "0x608060405234801562000010575f80fd5b50604051620019fe380380620019fe8339818101604052810190620000369190620002d9565b335f806101000a81548173ffffffffffffffffffffffffffffffffffffffff021916908373ffffffffffffffffffffffffffffffffffffffff16021790555080600190805190602001906200008d929190620000b7565b505f6002819055506001600360146101000a81548160ff0219169083151502179055505062000328565b828054828255905f5260205f20908101928215620000f4579160200282015b82811115620000f3578251825591602001919060010190620000d6565b5b50905062000103919062000107565b5090565b5b8082111562000120575f815f90555060010162000108565b5090565b5f604051905090565b5f80fd5b5f80fd5b5f80fd5b5f601f19601f8301169050919050565b7f4e487b71000000000000000000000000000000000000000000000000000000005f52604160045260245ffd5b620001818262000139565b810181811067ffffffffffffffff82111715620001a357620001a262000149565b5b80604052505050565b5f620001b762000124565b9050620001c5828262000176565b919050565b5f67ffffffffffffffff821115620001e757620001e662000149565b5b602082029050602081019050919050565b5f80fd5b5f819050919050565b6200021081620001fc565b81146200021b575f80fd5b50565b5f815190506200022e8162000205565b92915050565b5f6200024a6200024484620001ca565b620001ac565b9050808382526020820190506020840283018581111562000270576200026f620001f8565b5b835b818110156200029d57806200028888826200021e565b84526020840193505060208101905062000272565b5050509392505050565b5f82601f830112620002be57620002bd62000135565b5b8151620002d084826020860162000234565b91505092915050565b5f60208284031215620002f157620002f06200012d565b5b5f82015167ffffffffffffffff81111562000311576200031062000131565b5b6200031f84828501620002a7565b91505092915050565b6116c880620003365f395ff3fe6080604052600436106100dc575f3560e01c80638da5cb5b1161007e578063bda9a8ea11610058578063bda9a8ea1461022c578063bfa547a614610256578063e89e4ed61461026c578063f3470be4146102a8576100dc565b80638da5cb5b146101c2578063ac627aff146101ec578063acf296b414610202576100dc565b806348a7c13d116100ba57806348a7c13d1461013c57806349173be714610146578063696611401461016e5780636ebd6d8514610198576100dc565b80632094ccfe146100e0578063209ed558146100f6578063328cd54a14610120575b5f80fd5b3480156100eb575f80fd5b506100f46102d2565b005b348015610101575f80fd5b5061010a61046d565b6040516101179190610e24565b60405180910390f35b61013a60048036038101906101359190610e6b565b610495565b005b610144610723565b005b348015610151575f80fd5b5061016c60048036038101906101679190610e6b565b6107b2565b005b348015610179575f80fd5b50610182610882565b60405161018f9190610eae565b60405180910390f35b3480156101a3575f80fd5b506101ac610889565b6040516101b99190610eae565b60405180910390f35b3480156101cd575f80fd5b506101d6610892565b6040516101e39190610e24565b60405180910390f35b3480156101f7575f80fd5b506102006108b5565b005b34801561020d575f80fd5b50610216610b7c565b6040516102239190610e24565b60405180910390f35b348015610237575f80fd5b50610240610ba1565b60405161024d9190610eae565b60405180910390f35b348015610261575f80fd5b5061026a610ba7565b005b348015610277575f80fd5b50610292600480360381019061028d9190610ef1565b610db2565b60405161029f9190610eae565b60405180910390f35b3480156102b3575f80fd5b506102bc610dd2565b6040516102c99190610f36565b60405180910390f35b5f8054906101000a900473ffffffffffffffffffffffffffffffffffffffff1673ffffffffffffffffffffffffffffffffffffffff163373ffffffffffffffffffffffffffffffffffffffff161461035f576040517f08c379a000000000000000000000000000000000000000000000000000000000815260040161035690610fcf565b60405180910390fd5b5f73ffffffffffffffffffffffffffffffffffffffff1660035f9054906101000a900473ffffffffffffffffffffffffffffffffffffffff1673ffffffffffffffffffffffffffffffffffffffff16146103ee576040517f08c379a00000000000000000000000000000000000000000000000000000000081526004016103e59061105d565b60405180910390fd5b5f600360146101000a81548160ff0219169083151502179055505f8054906101000a900473ffffffffffffffffffffffffffffffffffffffff1673ffffffffffffffffffffffffffffffffffffffff166108fc4790811502906040515f60405180830381858888f1935050505015801561046a573d5f803e3d5ffd5b50565b5f60035f9054906101000a900473ffffffffffffffffffffffffffffffffffffffff16905090565b5f8054906101000a900473ffffffffffffffffffffffffffffffffffffffff1673ffffffffffffffffffffffffffffffffffffffff163373ffffffffffffffffffffffffffffffffffffffff1614610522576040517f08c379a0000000000000000000000000000000000000000000000000000000008152600401610519906110eb565b60405180910390fd5b600360149054906101000a900460ff16610571576040517f08c379a000000000000000000000000000000000000000000000000000000000815260040161056890611153565b60405180910390fd5b600180549050600254106105ba576040517f08c379a00000000000000000000000000000000000000000000000000000000081526004016105b1906111e1565b60405180910390fd5b5f6064600a6001600254815481106105d5576105d46111ff565b5b905f5260205f2001546105e89190611259565b6105f291906112c7565b905080341015610637576040517f08c379a000000000000000000000000000000000000000000000000000000000815260040161062e90611367565b60405180910390fd5b8047101561067a576040517f08c379a0000000000000000000000000000000000000000000000000000000008152600401610671906113f5565b60405180910390fd5b60035f9054906101000a900473ffffffffffffffffffffffffffffffffffffffff1673ffffffffffffffffffffffffffffffffffffffff166108fc8290811502906040515f60405180830381858888f193505050501580156106de573d5f803e3d5ffd5b508160035f6101000a81548173ffffffffffffffffffffffffffffffffffffffff021916908373ffffffffffffffffffffffffffffffffffffffff1602179055505050565b5f8054906101000a900473ffffffffffffffffffffffffffffffffffffffff1673ffffffffffffffffffffffffffffffffffffffff163373ffffffffffffffffffffffffffffffffffffffff16146107b0576040517f08c379a00000000000000000000000000000000000000000000000000000000081526004016107a790611483565b60405180910390fd5b565b5f8054906101000a900473ffffffffffffffffffffffffffffffffffffffff1673ffffffffffffffffffffffffffffffffffffffff163373ffffffffffffffffffffffffffffffffffffffff161461083f576040517f08c379a000000000000000000000000000000000000000000000000000000000815260040161083690611511565b60405180910390fd5b8060035f6101000a81548173ffffffffffffffffffffffffffffffffffffffff021916908373ffffffffffffffffffffffffffffffffffffffff16021790555050565b5f47905090565b5f600254905090565b5f8054906101000a900473ffffffffffffffffffffffffffffffffffffffff1681565b5f8054906101000a900473ffffffffffffffffffffffffffffffffffffffff1673ffffffffffffffffffffffffffffffffffffffff163373ffffffffffffffffffffffffffffffffffffffff1614610942576040517f08c379a000000000000000000000000000000000000000000000000000000000815260040161093990610fcf565b60405180910390fd5b5f73ffffffffffffffffffffffffffffffffffffffff1660035f9054906101000a900473ffffffffffffffffffffffffffffffffffffffff1673ffffffffffffffffffffffffffffffffffffffff16036109d1576040517f08c379a00000000000000000000000000000000000000000000000000000000081526004016109c89061159f565b60405180910390fd5b60018054905060025410610a1a576040517f08c379a0000000000000000000000000000000000000000000000000000000008152600401610a11906111e1565b60405180910390fd5b5f6064600a600160025481548110610a3557610a346111ff565b5b905f5260205f200154610a489190611259565b610a5291906112c7565b905080471015610a97576040517f08c379a0000000000000000000000000000000000000000000000000000000008152600401610a8e906113f5565b60405180910390fd5b60035f9054906101000a900473ffffffffffffffffffffffffffffffffffffffff1673ffffffffffffffffffffffffffffffffffffffff166108fc8290811502906040515f60405180830381858888f19350505050158015610afb573d5f803e3d5ffd5b505f600360146101000a81548160ff0219169083151502179055505f8054906101000a900473ffffffffffffffffffffffffffffffffffffffff1673ffffffffffffffffffffffffffffffffffffffff166108fc4790811502906040515f60405180830381858888f19350505050158015610b78573d5f803e3d5ffd5b5050565b60035f9054906101000a900473ffffffffffffffffffffffffffffffffffffffff1681565b60025481565b60035f9054906101000a900473ffffffffffffffffffffffffffffffffffffffff1673ffffffffffffffffffffffffffffffffffffffff163373ffffffffffffffffffffffffffffffffffffffff1614610c36576040517f08c379a0000000000000000000000000000000000000000000000000000000008152600401610c2d9061162d565b60405180910390fd5b600360149054906101000a900460ff16610c85576040517f08c379a0000000000000000000000000000000000000000000000000000000008152600401610c7c90611153565b60405180910390fd5b60018054905060025410610cce576040517f08c379a0000000000000000000000000000000000000000000000000000000008152600401610cc5906111e1565b60405180910390fd5b5f600160025481548110610ce557610ce46111ff565b5b905f5260205f200154905060025f815480929190610d029061164b565b919050555080471015610d4a576040517f08c379a0000000000000000000000000000000000000000000000000000000008152600401610d41906113f5565b60405180910390fd5b60035f9054906101000a900473ffffffffffffffffffffffffffffffffffffffff1673ffffffffffffffffffffffffffffffffffffffff166108fc8290811502906040515f60405180830381858888f19350505050158015610dae573d5f803e3d5ffd5b5050565b60018181548110610dc1575f80fd5b905f5260205f20015f915090505481565b600360149054906101000a900460ff1681565b5f73ffffffffffffffffffffffffffffffffffffffff82169050919050565b5f610e0e82610de5565b9050919050565b610e1e81610e04565b82525050565b5f602082019050610e375f830184610e15565b92915050565b5f80fd5b610e4a81610e04565b8114610e54575f80fd5b50565b5f81359050610e6581610e41565b92915050565b5f60208284031215610e8057610e7f610e3d565b5b5f610e8d84828501610e57565b91505092915050565b5f819050919050565b610ea881610e96565b82525050565b5f602082019050610ec15f830184610e9f565b92915050565b610ed081610e96565b8114610eda575f80fd5b50565b5f81359050610eeb81610ec7565b92915050565b5f60208284031215610f0657610f05610e3d565b5b5f610f1384828501610edd565b91505092915050565b5f8115159050919050565b610f3081610f1c565b82525050565b5f602082019050610f495f830184610f27565b92915050565b5f82825260208201905092915050565b7f4f6e6c7920746865206f776e65722063616e2072656d6f7665207468652070725f8201527f6f6a656374000000000000000000000000000000000000000000000000000000602082015250565b5f610fb9602583610f4f565b9150610fc482610f5f565b604082019050919050565b5f6020820190508181035f830152610fe681610fad565b9050919050565b7f41737369676e6565206973206e6f74206e756c6c2c207573652072656d6f76655f8201527f5f70726f6a6563745f776974685f61737369676e656500000000000000000000602082015250565b5f611047603683610f4f565b915061105282610fed565b604082019050919050565b5f6020820190508181035f8301526110748161103b565b9050919050565b7f4f6e6c7920746865206f776e65722063616e206368616e6765207468652061735f8201527f7369676e65650000000000000000000000000000000000000000000000000000602082015250565b5f6110d5602683610f4f565b91506110e08261107b565b604082019050919050565b5f6020820190508181035f830152611102816110c9565b9050919050565b7f50726f6a656374206973206e6f742061637469766500000000000000000000005f82015250565b5f61113d601583610f4f565b915061114882611109565b602082019050919050565b5f6020820190508181035f83015261116a81611131565b9050919050565b7f416c6c206d696c6573746f6e65732061726520616c726561647920636f6d706c5f8201527f6574656400000000000000000000000000000000000000000000000000000000602082015250565b5f6111cb602483610f4f565b91506111d682611171565b604082019050919050565b5f6020820190508181035f8301526111f8816111bf565b9050919050565b7f4e487b71000000000000000000000000000000000000000000000000000000005f52603260045260245ffd5b7f4e487b71000000000000000000000000000000000000000000000000000000005f52601160045260245ffd5b5f61126382610e96565b915061126e83610e96565b925082820261127c81610e96565b915082820484148315176112935761129261122c565b5b5092915050565b7f4e487b71000000000000000000000000000000000000000000000000000000005f52601260045260245ffd5b5f6112d182610e96565b91506112dc83610e96565b9250826112ec576112eb61129a565b5b828204905092915050565b7f496e73756666696369656e74207061796d656e7420746f206368616e676520615f8201527f737369676e656500000000000000000000000000000000000000000000000000602082015250565b5f611351602783610f4f565b915061135c826112f7565b604082019050919050565b5f6020820190508181035f83015261137e81611345565b9050919050565b7f496e73756666696369656e742066756e647320696e2074686520636f6e7472615f8201527f6374000000000000000000000000000000000000000000000000000000000000602082015250565b5f6113df602283610f4f565b91506113ea82611385565b604082019050919050565b5f6020820190508181035f83015261140c816113d3565b9050919050565b7f4f6e6c7920746865206f776e65722063616e2073656e64206164646974696f6e5f8201527f616c2066756e6473000000000000000000000000000000000000000000000000602082015250565b5f61146d602883610f4f565b915061147882611413565b604082019050919050565b5f6020820190508181035f83015261149a81611461565b9050919050565b7f4f6e6c7920746865206f776e65722063616e2061737369676e207468652066695f8201527f72737420667265656c616e636572000000000000000000000000000000000000602082015250565b5f6114fb602e83610f4f565b9150611506826114a1565b604082019050919050565b5f6020820190508181035f830152611528816114ef565b9050919050565b7f41737369676e6565206973206e756c6c2c207573652072656d6f76655f70726f5f8201527f6a6563745f776974685f6e6f5f61737369676e65650000000000000000000000602082015250565b5f611589603583610f4f565b91506115948261152f565b604082019050919050565b5f6020820190508181035f8301526115b68161157d565b9050919050565b7f4f6e6c79207468652063757272656e742061737369676e65652063616e206d615f8201527f726b2061206d696c6573746f6e6520617320636f6d706c657465000000000000602082015250565b5f611617603a83610f4f565b9150611622826115bd565b604082019050919050565b5f6020820190508181035f8301526116448161160b565b9050919050565b5f61165582610e96565b91507fffffffffffffffffffffffffffffffffffffffffffffffffffffffffffffffff82036116875761168661122c565b5b60018201905091905056fea264697066735822122016ba406a972d9711fea9e9a417d14ac184dac5a1b4867c0353072db792a1f4c064736f6c63430008140033",
  "immutableReferences": {},
  "source": "// SPDX-License-Identifier: MIT\npragma solidity ^0.8.0;\n\ncontract CryptoLancerContract {\n    address public owner;\n    uint256[] public milestones;\n    uint256 public curMilestone;\n    address public curAssignee;\n    bool public projectActive;\n\n    constructor(uint256[] memory _milestones) {\n        owner = msg.sender; // The sender of the deployment transaction becomes the owner\n        milestones = _milestones;\n        curMilestone = 0;\n        projectActive = true;\n    }\n\n    function addBudgetToContract() external payable {\n        // The contract should accept and store additional funds sent by the owner.\n        require(msg.sender == owner, \"Only the owner can send additional funds\");\n    }\n\n    function add_first_assignee(address _assignee) public {\n        require(msg.sender == owner, \"Only the owner can assign the first freelancer\");\n        curAssignee = _assignee;\n    }\n\n    function mark_milestone_as_complete() public {\n        require(msg.sender == curAssignee, \"Only the current assignee can mark a milestone as complete\");\n        require(projectActive, \"Project is not active\");\n        require(curMilestone < milestones.length, \"All milestones are already completed\");\n        \n        uint256 milestonePayment = milestones[curMilestone];\n        curMilestone++;\n        require(address(this).balance >= milestonePayment, \"Insufficient funds in the contract\");\n        payable(curAssignee).transfer(milestonePayment);\n    }\n\n    function change_assignee(address _newAssignee) public payable {\n        require(msg.sender == owner, \"Only the owner can change the assignee\");\n        require(projectActive, \"Project is not active\");\n        require(curMilestone < milestones.length, \"All milestones are already completed\");\n\n        uint256 milestonePayment = (milestones[curMilestone] * 10) / 100;\n        require(msg.value >= milestonePayment, \"Insufficient payment to change assignee\");\n        require(address(this).balance >= milestonePayment, \"Insufficient funds in the contract\");\n\n        payable(curAssignee).transfer(milestonePayment);\n        curAssignee = _newAssignee;\n    }\n\n    function remove_project_with_no_assignee() public {\n        require(msg.sender == owner, \"Only the owner can remove the project\");\n        require(curAssignee == address(0), \"Assignee is not null, use remove_project_with_assignee\");\n        projectActive = false;\n        // transfer remaining funds to the owner\n        payable(owner).transfer(address(this).balance);\n    }\n\n    function remove_project_with_assignee() public {\n        require(msg.sender == owner, \"Only the owner can remove the project\");\n        require(curAssignee != address(0), \"Assignee is null, use remove_project_with_no_assignee\");\n        require(curMilestone < milestones.length, \"All milestones are already completed\");\n\n        uint256 milestonePayment = (milestones[curMilestone] * 10) / 100;\n        require(address(this).balance >= milestonePayment, \"Insufficient funds in the contract\");\n\n        payable(curAssignee).transfer(milestonePayment);\n        projectActive = false;\n        payable(owner).transfer(address(this).balance);\n    }\n\n    function getCurAssignee() public view returns (address) {\n        return curAssignee;\n    }\n\n    function getNoOfMilestonesCompleted() public view returns (uint256) {\n        return curMilestone;\n    }\n\n    function getLeftFunds() public view returns (uint256) {\n        return address(this).balance;\n    }\n}\n",
  "sourcePath": "/home/ranjan/Desktop/cryptolancer/contract/contracts/contract.sol",
  "compiler": {
    "name": "solc",
    "version": "0.8.20+commit.a1b79de6.Emscripten.clang"
  },
  "schemaVersion": "3.4.14",
  "updatedAt": "2023-11-04T04:28:29.393Z",
  "devdoc": {
    "kind": "dev",
    "methods": {},
    "version": 1
  },
  "userdoc": {
    "kind": "user",
    "methods": {},
    "version": 1
  }
}