{
  "_format": "hh-sol-artifact-1",
  "contractName": "CryptoLancerContract",
  "sourceName": "contracts/contract.sol",
  "abi": [
    {
      "inputs": [
        {
          "internalType": "uint256[]",
          "name": "_milestones",
          "type": "uint256[]"
        }
      ],
      "stateMutability": "nonpayable",
      "type": "constructor"
    },
    {
      "stateMutability": "payable",
      "type": "fallback"
    },
    {
      "inputs": [],
      "name": "addBudgetToContract",
      "outputs": [],
      "stateMutability": "payable",
      "type": "function"
    },
    {
      "inputs": [
        {
          "internalType": "address",
          "name": "_assignee",
          "type": "address"
        }
      ],
      "name": "add_first_assignee",
      "outputs": [],
      "stateMutability": "nonpayable",
      "type": "function"
    },
    {
      "inputs": [
        {
          "internalType": "address",
          "name": "_newAssignee",
          "type": "address"
        }
      ],
      "name": "change_assignee",
      "outputs": [],
      "stateMutability": "payable",
      "type": "function"
    },
    {
      "inputs": [],
      "name": "curAssignee",
      "outputs": [
        {
          "internalType": "address",
          "name": "",
          "type": "address"
        }
      ],
      "stateMutability": "view",
      "type": "function"
    },
    {
      "inputs": [],
      "name": "curMilestone",
      "outputs": [
        {
          "internalType": "uint256",
          "name": "",
          "type": "uint256"
        }
      ],
      "stateMutability": "view",
      "type": "function"
    },
    {
      "inputs": [],
      "name": "getCurAssignee",
      "outputs": [
        {
          "internalType": "address",
          "name": "",
          "type": "address"
        }
      ],
      "stateMutability": "view",
      "type": "function"
    },
    {
      "inputs": [],
      "name": "getLeftFunds",
      "outputs": [
        {
          "internalType": "uint256",
          "name": "",
          "type": "uint256"
        }
      ],
      "stateMutability": "view",
      "type": "function"
    },
    {
      "inputs": [],
      "name": "getNoOfMilestonesCompleted",
      "outputs": [
        {
          "internalType": "uint256",
          "name": "",
          "type": "uint256"
        }
      ],
      "stateMutability": "view",
      "type": "function"
    },
    {
      "inputs": [],
      "name": "mark_milestone_as_complete",
      "outputs": [],
      "stateMutability": "nonpayable",
      "type": "function"
    },
    {
      "inputs": [
        {
          "internalType": "uint256",
          "name": "",
          "type": "uint256"
        }
      ],
      "name": "milestones",
      "outputs": [
        {
          "internalType": "uint256",
          "name": "",
          "type": "uint256"
        }
      ],
      "stateMutability": "view",
      "type": "function"
    },
    {
      "inputs": [],
      "name": "owner",
      "outputs": [
        {
          "internalType": "address",
          "name": "",
          "type": "address"
        }
      ],
      "stateMutability": "view",
      "type": "function"
    },
    {
      "inputs": [],
      "name": "projectActive",
      "outputs": [
        {
          "internalType": "bool",
          "name": "",
          "type": "bool"
        }
      ],
      "stateMutability": "view",
      "type": "function"
    },
    {
      "inputs": [],
      "name": "remove_project_with_assignee",
      "outputs": [],
      "stateMutability": "nonpayable",
      "type": "function"
    },
    {
      "inputs": [],
      "name": "remove_project_with_no_assignee",
      "outputs": [],
      "stateMutability": "nonpayable",
      "type": "function"
    },
    {
      "stateMutability": "payable",
      "type": "receive"
    }
  ],
  "bytecode": "0x60806040523480156200001157600080fd5b5060405162001aad38038062001aad8339818101604052810190620000379190620002ef565b336000806101000a81548173ffffffffffffffffffffffffffffffffffffffff021916908373ffffffffffffffffffffffffffffffffffffffff16021790555080600190805190602001906200008f929190620000ba565b5060006002819055506001600360146101000a81548160ff0219169083151502179055505062000340565b828054828255906000526020600020908101928215620000f9579160200282015b82811115620000f8578251825591602001919060010190620000db565b5b5090506200010891906200010c565b5090565b5b80821115620001275760008160009055506001016200010d565b5090565b6000604051905090565b600080fd5b600080fd5b600080fd5b6000601f19601f8301169050919050565b7f4e487b7100000000000000000000000000000000000000000000000000000000600052604160045260246000fd5b6200018f8262000144565b810181811067ffffffffffffffff82111715620001b157620001b062000155565b5b80604052505050565b6000620001c66200012b565b9050620001d4828262000184565b919050565b600067ffffffffffffffff821115620001f757620001f662000155565b5b602082029050602081019050919050565b600080fd5b6000819050919050565b62000222816200020d565b81146200022e57600080fd5b50565b600081519050620002428162000217565b92915050565b60006200025f6200025984620001d9565b620001ba565b9050808382526020820190506020840283018581111562000285576200028462000208565b5b835b81811015620002b257806200029d888262000231565b84526020840193505060208101905062000287565b5050509392505050565b600082601f830112620002d457620002d36200013f565b5b8151620002e684826020860162000248565b91505092915050565b60006020828403121562000308576200030762000135565b5b600082015167ffffffffffffffff8111156200032957620003286200013a565b5b6200033784828501620002bc565b91505092915050565b61175d80620003506000396000f3fe6080604052600436106100e15760003560e01c80638da5cb5b1161007f578063bda9a8ea11610059578063bda9a8ea1461023e578063bfa547a614610269578063e89e4ed614610280578063f3470be4146102bd576100e8565b80638da5cb5b146101d1578063ac627aff146101fc578063acf296b414610213576100e8565b806348a7c13d116100bb57806348a7c13d1461014857806349173be714610152578063696611401461017b5780636ebd6d85146101a6576100e8565b80632094ccfe146100ea578063209ed55814610101578063328cd54a1461012c576100e8565b366100e857005b005b3480156100f657600080fd5b506100ff6102e8565b005b34801561010d57600080fd5b5061011661048b565b6040516101239190610e72565b60405180910390f35b61014660048036038101906101419190610ebe565b6104b5565b005b61015061074c565b005b34801561015e57600080fd5b5061017960048036038101906101749190610ebe565b6107dc565b005b34801561018757600080fd5b506101906108ae565b60405161019d9190610f04565b60405180910390f35b3480156101b257600080fd5b506101bb6108b6565b6040516101c89190610f04565b60405180910390f35b3480156101dd57600080fd5b506101e66108c0565b6040516101f39190610e72565b60405180910390f35b34801561020857600080fd5b506102116108e4565b005b34801561021f57600080fd5b50610228610bba565b6040516102359190610e72565b60405180910390f35b34801561024a57600080fd5b50610253610be0565b6040516102609190610f04565b60405180910390f35b34801561027557600080fd5b5061027e610be6565b005b34801561028c57600080fd5b506102a760048036038101906102a29190610f4b565b610dfa565b6040516102b49190610f04565b60405180910390f35b3480156102c957600080fd5b506102d2610e1e565b6040516102df9190610f93565b60405180910390f35b60008054906101000a900473ffffffffffffffffffffffffffffffffffffffff1673ffffffffffffffffffffffffffffffffffffffff163373ffffffffffffffffffffffffffffffffffffffff1614610376576040517f08c379a000000000000000000000000000000000000000000000000000000000815260040161036d90611031565b60405180910390fd5b600073ffffffffffffffffffffffffffffffffffffffff16600360009054906101000a900473ffffffffffffffffffffffffffffffffffffffff1673ffffffffffffffffffffffffffffffffffffffff1614610407576040517f08c379a00000000000000000000000000000000000000000000000000000000081526004016103fe906110c3565b60405180910390fd5b6000600360146101000a81548160ff02191690831515021790555060008054906101000a900473ffffffffffffffffffffffffffffffffffffffff1673ffffffffffffffffffffffffffffffffffffffff166108fc479081150290604051600060405180830381858888f19350505050158015610488573d6000803e3d6000fd5b50565b6000600360009054906101000a900473ffffffffffffffffffffffffffffffffffffffff16905090565b60008054906101000a900473ffffffffffffffffffffffffffffffffffffffff1673ffffffffffffffffffffffffffffffffffffffff163373ffffffffffffffffffffffffffffffffffffffff1614610543576040517f08c379a000000000000000000000000000000000000000000000000000000000815260040161053a90611155565b60405180910390fd5b600360149054906101000a900460ff16610592576040517f08c379a0000000000000000000000000000000000000000000000000000000008152600401610589906111c1565b60405180910390fd5b600180549050600254106105db576040517f08c379a00000000000000000000000000000000000000000000000000000000081526004016105d290611253565b60405180910390fd5b60006064600a6001600254815481106105f7576105f6611273565b5b906000526020600020015461060c91906112d1565b6106169190611342565b90508034101561065b576040517f08c379a0000000000000000000000000000000000000000000000000000000008152600401610652906113e5565b60405180910390fd5b8047101561069e576040517f08c379a000000000000000000000000000000000000000000000000000000000815260040161069590611477565b60405180910390fd5b600360009054906101000a900473ffffffffffffffffffffffffffffffffffffffff1673ffffffffffffffffffffffffffffffffffffffff166108fc829081150290604051600060405180830381858888f19350505050158015610706573d6000803e3d6000fd5b5081600360006101000a81548173ffffffffffffffffffffffffffffffffffffffff021916908373ffffffffffffffffffffffffffffffffffffffff1602179055505050565b60008054906101000a900473ffffffffffffffffffffffffffffffffffffffff1673ffffffffffffffffffffffffffffffffffffffff163373ffffffffffffffffffffffffffffffffffffffff16146107da576040517f08c379a00000000000000000000000000000000000000000000000000000000081526004016107d190611509565b60405180910390fd5b565b60008054906101000a900473ffffffffffffffffffffffffffffffffffffffff1673ffffffffffffffffffffffffffffffffffffffff163373ffffffffffffffffffffffffffffffffffffffff161461086a576040517f08c379a00000000000000000000000000000000000000000000000000000000081526004016108619061159b565b60405180910390fd5b80600360006101000a81548173ffffffffffffffffffffffffffffffffffffffff021916908373ffffffffffffffffffffffffffffffffffffffff16021790555050565b600047905090565b6000600254905090565b60008054906101000a900473ffffffffffffffffffffffffffffffffffffffff1681565b60008054906101000a900473ffffffffffffffffffffffffffffffffffffffff1673ffffffffffffffffffffffffffffffffffffffff163373ffffffffffffffffffffffffffffffffffffffff1614610972576040517f08c379a000000000000000000000000000000000000000000000000000000000815260040161096990611031565b60405180910390fd5b600073ffffffffffffffffffffffffffffffffffffffff16600360009054906101000a900473ffffffffffffffffffffffffffffffffffffffff1673ffffffffffffffffffffffffffffffffffffffff1603610a03576040517f08c379a00000000000000000000000000000000000000000000000000000000081526004016109fa9061162d565b60405180910390fd5b60018054905060025410610a4c576040517f08c379a0000000000000000000000000000000000000000000000000000000008152600401610a4390611253565b60405180910390fd5b60006064600a600160025481548110610a6857610a67611273565b5b9060005260206000200154610a7d91906112d1565b610a879190611342565b905080471015610acc576040517f08c379a0000000000000000000000000000000000000000000000000000000008152600401610ac390611477565b60405180910390fd5b600360009054906101000a900473ffffffffffffffffffffffffffffffffffffffff1673ffffffffffffffffffffffffffffffffffffffff166108fc829081150290604051600060405180830381858888f19350505050158015610b34573d6000803e3d6000fd5b506000600360146101000a81548160ff02191690831515021790555060008054906101000a900473ffffffffffffffffffffffffffffffffffffffff1673ffffffffffffffffffffffffffffffffffffffff166108fc479081150290604051600060405180830381858888f19350505050158015610bb6573d6000803e3d6000fd5b5050565b600360009054906101000a900473ffffffffffffffffffffffffffffffffffffffff1681565b60025481565b600360009054906101000a900473ffffffffffffffffffffffffffffffffffffffff1673ffffffffffffffffffffffffffffffffffffffff163373ffffffffffffffffffffffffffffffffffffffff1614610c76576040517f08c379a0000000000000000000000000000000000000000000000000000000008152600401610c6d906116bf565b60405180910390fd5b600360149054906101000a900460ff16610cc5576040517f08c379a0000000000000000000000000000000000000000000000000000000008152600401610cbc906111c1565b60405180910390fd5b60018054905060025410610d0e576040517f08c379a0000000000000000000000000000000000000000000000000000000008152600401610d0590611253565b60405180910390fd5b6000600160025481548110610d2657610d25611273565b5b9060005260206000200154905060026000815480929190610d46906116df565b919050555080471015610d8e576040517f08c379a0000000000000000000000000000000000000000000000000000000008152600401610d8590611477565b60405180910390fd5b600360009054906101000a900473ffffffffffffffffffffffffffffffffffffffff1673ffffffffffffffffffffffffffffffffffffffff166108fc829081150290604051600060405180830381858888f19350505050158015610df6573d6000803e3d6000fd5b5050565b60018181548110610e0a57600080fd5b906000526020600020016000915090505481565b600360149054906101000a900460ff1681565b600073ffffffffffffffffffffffffffffffffffffffff82169050919050565b6000610e5c82610e31565b9050919050565b610e6c81610e51565b82525050565b6000602082019050610e876000830184610e63565b92915050565b600080fd5b610e9b81610e51565b8114610ea657600080fd5b50565b600081359050610eb881610e92565b92915050565b600060208284031215610ed457610ed3610e8d565b5b6000610ee284828501610ea9565b91505092915050565b6000819050919050565b610efe81610eeb565b82525050565b6000602082019050610f196000830184610ef5565b92915050565b610f2881610eeb565b8114610f3357600080fd5b50565b600081359050610f4581610f1f565b92915050565b600060208284031215610f6157610f60610e8d565b5b6000610f6f84828501610f36565b91505092915050565b60008115159050919050565b610f8d81610f78565b82525050565b6000602082019050610fa86000830184610f84565b92915050565b600082825260208201905092915050565b7f4f6e6c7920746865206f776e65722063616e2072656d6f76652074686520707260008201527f6f6a656374000000000000000000000000000000000000000000000000000000602082015250565b600061101b602583610fae565b915061102682610fbf565b604082019050919050565b6000602082019050818103600083015261104a8161100e565b9050919050565b7f41737369676e6565206973206e6f74206e756c6c2c207573652072656d6f766560008201527f5f70726f6a6563745f776974685f61737369676e656500000000000000000000602082015250565b60006110ad603683610fae565b91506110b882611051565b604082019050919050565b600060208201905081810360008301526110dc816110a0565b9050919050565b7f4f6e6c7920746865206f776e65722063616e206368616e67652074686520617360008201527f7369676e65650000000000000000000000000000000000000000000000000000602082015250565b600061113f602683610fae565b915061114a826110e3565b604082019050919050565b6000602082019050818103600083015261116e81611132565b9050919050565b7f50726f6a656374206973206e6f74206163746976650000000000000000000000600082015250565b60006111ab601583610fae565b91506111b682611175565b602082019050919050565b600060208201905081810360008301526111da8161119e565b9050919050565b7f416c6c206d696c6573746f6e65732061726520616c726561647920636f6d706c60008201527f6574656400000000000000000000000000000000000000000000000000000000602082015250565b600061123d602483610fae565b9150611248826111e1565b604082019050919050565b6000602082019050818103600083015261126c81611230565b9050919050565b7f4e487b7100000000000000000000000000000000000000000000000000000000600052603260045260246000fd5b7f4e487b7100000000000000000000000000000000000000000000000000000000600052601160045260246000fd5b60006112dc82610eeb565b91506112e783610eeb565b92508282026112f581610eeb565b9150828204841483151761130c5761130b6112a2565b5b5092915050565b7f4e487b7100000000000000000000000000000000000000000000000000000000600052601260045260246000fd5b600061134d82610eeb565b915061135883610eeb565b92508261136857611367611313565b5b828204905092915050565b7f496e73756666696369656e74207061796d656e7420746f206368616e6765206160008201527f737369676e656500000000000000000000000000000000000000000000000000602082015250565b60006113cf602783610fae565b91506113da82611373565b604082019050919050565b600060208201905081810360008301526113fe816113c2565b9050919050565b7f496e73756666696369656e742066756e647320696e2074686520636f6e74726160008201527f6374000000000000000000000000000000000000000000000000000000000000602082015250565b6000611461602283610fae565b915061146c82611405565b604082019050919050565b6000602082019050818103600083015261149081611454565b9050919050565b7f4f6e6c7920746865206f776e65722063616e2073656e64206164646974696f6e60008201527f616c2066756e6473000000000000000000000000000000000000000000000000602082015250565b60006114f3602883610fae565b91506114fe82611497565b604082019050919050565b60006020820190508181036000830152611522816114e6565b9050919050565b7f4f6e6c7920746865206f776e65722063616e2061737369676e2074686520666960008201527f72737420667265656c616e636572000000000000000000000000000000000000602082015250565b6000611585602e83610fae565b915061159082611529565b604082019050919050565b600060208201905081810360008301526115b481611578565b9050919050565b7f41737369676e6565206973206e756c6c2c207573652072656d6f76655f70726f60008201527f6a6563745f776974685f6e6f5f61737369676e65650000000000000000000000602082015250565b6000611617603583610fae565b9150611622826115bb565b604082019050919050565b600060208201905081810360008301526116468161160a565b9050919050565b7f4f6e6c79207468652063757272656e742061737369676e65652063616e206d6160008201527f726b2061206d696c6573746f6e6520617320636f6d706c657465000000000000602082015250565b60006116a9603a83610fae565b91506116b48261164d565b604082019050919050565b600060208201905081810360008301526116d88161169c565b9050919050565b60006116ea82610eeb565b91507fffffffffffffffffffffffffffffffffffffffffffffffffffffffffffffffff820361171c5761171b6112a2565b5b60018201905091905056fea2646970667358221220cfd642455dbb0d94587daa1b4e4f9549e075ec05ab781d9d1336a88dcf4bd36264736f6c63430008130033",
  "linkReferences": {},
  "deployedLinkReferences": {}
}